{
    "_format": "hh-sol-artifact-1",
    "contractName": "BookMarketplace",
    "sourceName": "contracts/BookMarketplace.sol",
    "abi": [
        {
            "inputs": [],
            "stateMutability": "nonpayable",
            "type": "constructor"
        },
        {
            "inputs": [
                {
                    "internalType": "address",
                    "name": "owner",
                    "type": "address"
                }
            ],
            "name": "OwnableInvalidOwner",
            "type": "error"
        },
        {
            "inputs": [
                {
                    "internalType": "address",
                    "name": "account",
                    "type": "address"
                }
            ],
            "name": "OwnableUnauthorizedAccount",
            "type": "error"
        },
        {
            "inputs": [],
            "name": "ReentrancyGuardReentrantCall",
            "type": "error"
        },
        {
            "anonymous": false,
            "inputs": [
                {
                    "indexed": true,
                    "internalType": "uint256",
                    "name": "bookId",
                    "type": "uint256"
                },
                {
                    "indexed": true,
                    "internalType": "address",
                    "name": "author",
                    "type": "address"
                },
                {
                    "indexed": false,
                    "internalType": "string",
                    "name": "title",
                    "type": "string"
                },
                {
                    "indexed": false,
                    "internalType": "uint256",
                    "name": "price",
                    "type": "uint256"
                }
            ],
            "name": "BookListed",
            "type": "event"
        },
        {
            "anonymous": false,
            "inputs": [
                {
                    "indexed": true,
                    "internalType": "uint256",
                    "name": "bookId",
                    "type": "uint256"
                },
                {
                    "indexed": true,
                    "internalType": "address",
                    "name": "buyer",
                    "type": "address"
                }
            ],
            "name": "BookPurchased",
            "type": "event"
        },
        {
            "anonymous": false,
            "inputs": [
                {
                    "indexed": true,
                    "internalType": "address",
                    "name": "previousOwner",
                    "type": "address"
                },
                {
                    "indexed": true,
                    "internalType": "address",
                    "name": "newOwner",
                    "type": "address"
                }
            ],
            "name": "OwnershipTransferred",
            "type": "event"
        },
        {
            "inputs": [
                {
                    "internalType": "string",
                    "name": "title",
                    "type": "string"
                },
                {
                    "internalType": "string",
                    "name": "cid",
                    "type": "string"
                },
                {
                    "internalType": "uint256",
                    "name": "price",
                    "type": "uint256"
                }
            ],
            "name": "addBook",
            "outputs": [],
            "stateMutability": "nonpayable",
            "type": "function"
        },
        {
            "inputs": [
                {
                    "internalType": "uint256",
                    "name": "",
                    "type": "uint256"
                }
            ],
            "name": "books",
            "outputs": [
                {
                    "internalType": "uint256",
                    "name": "id",
                    "type": "uint256"
                },
                {
                    "internalType": "address",
                    "name": "author",
                    "type": "address"
                },
                {
                    "internalType": "string",
                    "name": "title",
                    "type": "string"
                },
                {
                    "internalType": "string",
                    "name": "cid",
                    "type": "string"
                },
                {
                    "internalType": "uint256",
                    "name": "price",
                    "type": "uint256"
                }
            ],
            "stateMutability": "view",
            "type": "function"
        },
        {
            "inputs": [],
            "name": "getAllBooks",
            "outputs": [
                {
                    "components": [
                        {
                            "internalType": "uint256",
                            "name": "id",
                            "type": "uint256"
                        },
                        {
                            "internalType": "address",
                            "name": "author",
                            "type": "address"
                        },
                        {
                            "internalType": "string",
                            "name": "title",
                            "type": "string"
                        },
                        {
                            "internalType": "string",
                            "name": "cid",
                            "type": "string"
                        },
                        {
                            "internalType": "uint256",
                            "name": "price",
                            "type": "uint256"
                        }
                    ],
                    "internalType": "struct BookMarketplace.Book[]",
                    "name": "",
                    "type": "tuple[]"
                }
            ],
            "stateMutability": "view",
            "type": "function"
        },
        {
            "inputs": [
                {
                    "internalType": "uint256",
                    "name": "bookId",
                    "type": "uint256"
                }
            ],
            "name": "getBook",
            "outputs": [
                {
                    "components": [
                        {
                            "internalType": "uint256",
                            "name": "id",
                            "type": "uint256"
                        },
                        {
                            "internalType": "address",
                            "name": "author",
                            "type": "address"
                        },
                        {
                            "internalType": "string",
                            "name": "title",
                            "type": "string"
                        },
                        {
                            "internalType": "string",
                            "name": "cid",
                            "type": "string"
                        },
                        {
                            "internalType": "uint256",
                            "name": "price",
                            "type": "uint256"
                        }
                    ],
                    "internalType": "struct BookMarketplace.Book",
                    "name": "",
                    "type": "tuple"
                }
            ],
            "stateMutability": "view",
            "type": "function"
        },
        {
            "inputs": [],
            "name": "getMyBooks",
            "outputs": [
                {
                    "internalType": "uint256[]",
                    "name": "",
                    "type": "uint256[]"
                }
            ],
            "stateMutability": "view",
            "type": "function"
        },
        {
            "inputs": [],
            "name": "nextBookId",
            "outputs": [
                {
                    "internalType": "uint256",
                    "name": "",
                    "type": "uint256"
                }
            ],
            "stateMutability": "view",
            "type": "function"
        },
        {
            "inputs": [],
            "name": "owner",
            "outputs": [
                {
                    "internalType": "address",
                    "name": "",
                    "type": "address"
                }
            ],
            "stateMutability": "view",
            "type": "function"
        },
        {
            "inputs": [
                {
                    "internalType": "uint256",
                    "name": "bookId",
                    "type": "uint256"
                }
            ],
            "name": "purchaseBook",
            "outputs": [],
            "stateMutability": "payable",
            "type": "function"
        },
        {
            "inputs": [],
            "name": "renounceOwnership",
            "outputs": [],
            "stateMutability": "nonpayable",
            "type": "function"
        },
        {
            "inputs": [
                {
                    "internalType": "address",
                    "name": "newOwner",
                    "type": "address"
                }
            ],
            "name": "transferOwnership",
            "outputs": [],
            "stateMutability": "nonpayable",
            "type": "function"
        },
        {
            "inputs": [
                {
                    "internalType": "address",
                    "name": "",
                    "type": "address"
                },
                {
                    "internalType": "uint256",
                    "name": "",
                    "type": "uint256"
                }
            ],
            "name": "userPurchases",
            "outputs": [
                {
                    "internalType": "uint256",
                    "name": "",
                    "type": "uint256"
                }
            ],
            "stateMutability": "view",
            "type": "function"
        }
    ],
    "bytecode": "0x608060405234801561001057600080fd5b5033600073ffffffffffffffffffffffffffffffffffffffff168173ffffffffffffffffffffffffffffffffffffffff16036100845760006040517f1e4fbdf700000000000000000000000000000000000000000000000000000000815260040161007b91906101a5565b60405180910390fd5b610093816100a060201b60201c565b50600180819055506101c0565b60008060009054906101000a900473ffffffffffffffffffffffffffffffffffffffff169050816000806101000a81548173ffffffffffffffffffffffffffffffffffffffff021916908373ffffffffffffffffffffffffffffffffffffffff1602179055508173ffffffffffffffffffffffffffffffffffffffff168173ffffffffffffffffffffffffffffffffffffffff167f8be0079c531659141344cd1fd0a4f28419497f9722a3daafe3b4186f6b6457e060405160405180910390a35050565b600073ffffffffffffffffffffffffffffffffffffffff82169050919050565b600061018f82610164565b9050919050565b61019f81610184565b82525050565b60006020820190506101ba6000830184610196565b92915050565b611d1b806101cf6000396000f3fe60806040526004361061009c5760003560e01c8063715018a611610064578063715018a61461017d5780637cf52d96146101945780638da5cb5b146101bf578063cf2c0334146101ea578063e0ff5b8b14610227578063f2fde38b146102645761009c565b806304266224146100a15780631c555f47146100ca578063354528e8146100e65780633cd90d8114610111578063687440461461013c575b600080fd5b3480156100ad57600080fd5b506100c860048036038101906100c391906111fd565b61028d565b005b6100e460048036038101906100df9190611288565b61041c565b005b3480156100f257600080fd5b506100fb61078e565b60405161010891906114c3565b60405180910390f35b34801561011d57600080fd5b506101266109d6565b6040516101339190611594565b60405180910390f35b34801561014857600080fd5b50610163600480360381019061015e9190611288565b610a6b565b60405161017495949392919061161e565b60405180910390f35b34801561018957600080fd5b50610192610bd1565b005b3480156101a057600080fd5b506101a9610be5565b6040516101b6919061167f565b60405180910390f35b3480156101cb57600080fd5b506101d4610beb565b6040516101e1919061169a565b60405180910390f35b3480156101f657600080fd5b50610211600480360381019061020c91906116e1565b610c14565b60405161021e919061167f565b60405180910390f35b34801561023357600080fd5b5061024e60048036038101906102499190611288565b610c45565b60405161025b919061179e565b60405180910390f35b34801561027057600080fd5b5061028b600480360381019061028691906117c0565b610e00565b005b600081116102d0576040517f08c379a00000000000000000000000000000000000000000000000000000000081526004016102c790611839565b60405180910390fd5b6000600260008154809291906102e590611888565b9190505590506040518060a001604052808281526020013373ffffffffffffffffffffffffffffffffffffffff16815260200185815260200184815260200183815250600360008381526020019081526020016000206000820151816000015560208201518160010160006101000a81548173ffffffffffffffffffffffffffffffffffffffff021916908373ffffffffffffffffffffffffffffffffffffffff16021790555060408201518160020190816103a19190611adc565b5060608201518160030190816103b79190611adc565b50608082015181600401559050503373ffffffffffffffffffffffffffffffffffffffff16817f793f1ccb1d545992c5d9a8a78c6eaf5d572807c93290f95b2cfcda1a76d59d9d868560405161040e929190611bae565b60405180910390a350505050565b610424610e86565b6000600360008381526020019081526020016000206040518060a0016040529081600082015481526020016001820160009054906101000a900473ffffffffffffffffffffffffffffffffffffffff1673ffffffffffffffffffffffffffffffffffffffff1673ffffffffffffffffffffffffffffffffffffffff1681526020016002820180546104b4906118ff565b80601f01602080910402602001604051908101604052809291908181526020018280546104e0906118ff565b801561052d5780601f106105025761010080835404028352916020019161052d565b820191906000526020600020905b81548152906001019060200180831161051057829003601f168201915b50505050508152602001600382018054610546906118ff565b80601f0160208091040260200160405190810160405280929190818152602001828054610572906118ff565b80156105bf5780601f10610594576101008083540402835291602001916105bf565b820191906000526020600020905b8154815290600101906020018083116105a257829003601f168201915b505050505081526020016004820154815250509050600073ffffffffffffffffffffffffffffffffffffffff16816020015173ffffffffffffffffffffffffffffffffffffffff1603610647576040517f08c379a000000000000000000000000000000000000000000000000000000000815260040161063e90611c2a565b60405180910390fd5b8060800151341461068d576040517f08c379a000000000000000000000000000000000000000000000000000000000815260040161068490611c96565b60405180910390fd5b806020015173ffffffffffffffffffffffffffffffffffffffff166108fc349081150290604051600060405180830381858888f193505050501580156106d7573d6000803e3d6000fd5b50600460003373ffffffffffffffffffffffffffffffffffffffff1673ffffffffffffffffffffffffffffffffffffffff1681526020019081526020016000208290806001815401808255809150506001900390600052602060002001600090919091909150553373ffffffffffffffffffffffffffffffffffffffff16827f419fc6819b8320f8731290b326a756bfd06fc875daf29721fe059dedd1937ef660405160405180910390a35061078b610ecc565b50565b6060600060025467ffffffffffffffff8111156107ae576107ad61109c565b5b6040519080825280602002602001820160405280156107e757816020015b6107d4611028565b8152602001906001900390816107cc5790505b50905060005b6002548110156109ce57600360008281526020019081526020016000206040518060a0016040529081600082015481526020016001820160009054906101000a900473ffffffffffffffffffffffffffffffffffffffff1673ffffffffffffffffffffffffffffffffffffffff1673ffffffffffffffffffffffffffffffffffffffff168152602001600282018054610885906118ff565b80601f01602080910402602001604051908101604052809291908181526020018280546108b1906118ff565b80156108fe5780601f106108d3576101008083540402835291602001916108fe565b820191906000526020600020905b8154815290600101906020018083116108e157829003601f168201915b50505050508152602001600382018054610917906118ff565b80601f0160208091040260200160405190810160405280929190818152602001828054610943906118ff565b80156109905780601f1061096557610100808354040283529160200191610990565b820191906000526020600020905b81548152906001019060200180831161097357829003601f168201915b505050505081526020016004820154815250508282815181106109b6576109b5611cb6565b5b602002602001018190525080806001019150506107ed565b508091505090565b6060600460003373ffffffffffffffffffffffffffffffffffffffff1673ffffffffffffffffffffffffffffffffffffffff168152602001908152602001600020805480602002602001604051908101604052809291908181526020018280548015610a6157602002820191906000526020600020905b815481526020019060010190808311610a4d575b5050505050905090565b60036020528060005260406000206000915090508060000154908060010160009054906101000a900473ffffffffffffffffffffffffffffffffffffffff1690806002018054610aba906118ff565b80601f0160208091040260200160405190810160405280929190818152602001828054610ae6906118ff565b8015610b335780601f10610b0857610100808354040283529160200191610b33565b820191906000526020600020905b815481529060010190602001808311610b1657829003601f168201915b505050505090806003018054610b48906118ff565b80601f0160208091040260200160405190810160405280929190818152602001828054610b74906118ff565b8015610bc15780601f10610b9657610100808354040283529160200191610bc1565b820191906000526020600020905b815481529060010190602001808311610ba457829003601f168201915b5050505050908060040154905085565b610bd9610ed5565b610be36000610f5c565b565b60025481565b60008060009054906101000a900473ffffffffffffffffffffffffffffffffffffffff16905090565b60046020528160005260406000208181548110610c3057600080fd5b90600052602060002001600091509150505481565b610c4d611028565b600360008381526020019081526020016000206040518060a0016040529081600082015481526020016001820160009054906101000a900473ffffffffffffffffffffffffffffffffffffffff1673ffffffffffffffffffffffffffffffffffffffff1673ffffffffffffffffffffffffffffffffffffffff168152602001600282018054610cdb906118ff565b80601f0160208091040260200160405190810160405280929190818152602001828054610d07906118ff565b8015610d545780601f10610d2957610100808354040283529160200191610d54565b820191906000526020600020905b815481529060010190602001808311610d3757829003601f168201915b50505050508152602001600382018054610d6d906118ff565b80601f0160208091040260200160405190810160405280929190818152602001828054610d99906118ff565b8015610de65780601f10610dbb57610100808354040283529160200191610de6565b820191906000526020600020905b815481529060010190602001808311610dc957829003601f168201915b505050505081526020016004820154815250509050919050565b610e08610ed5565b600073ffffffffffffffffffffffffffffffffffffffff168173ffffffffffffffffffffffffffffffffffffffff1603610e7a5760006040517f1e4fbdf7000000000000000000000000000000000000000000000000000000008152600401610e71919061169a565b60405180910390fd5b610e8381610f5c565b50565b600260015403610ec2576040517f3ee5aeb500000000000000000000000000000000000000000000000000000000815260040160405180910390fd5b6002600181905550565b60018081905550565b610edd611020565b73ffffffffffffffffffffffffffffffffffffffff16610efb610beb565b73ffffffffffffffffffffffffffffffffffffffff1614610f5a57610f1e611020565b6040517f118cdaa7000000000000000000000000000000000000000000000000000000008152600401610f51919061169a565b60405180910390fd5b565b60008060009054906101000a900473ffffffffffffffffffffffffffffffffffffffff169050816000806101000a81548173ffffffffffffffffffffffffffffffffffffffff021916908373ffffffffffffffffffffffffffffffffffffffff1602179055508173ffffffffffffffffffffffffffffffffffffffff168173ffffffffffffffffffffffffffffffffffffffff167f8be0079c531659141344cd1fd0a4f28419497f9722a3daafe3b4186f6b6457e060405160405180910390a35050565b600033905090565b6040518060a0016040528060008152602001600073ffffffffffffffffffffffffffffffffffffffff1681526020016060815260200160608152602001600081525090565b6000604051905090565b600080fd5b600080fd5b600080fd5b600080fd5b6000601f19601f8301169050919050565b7f4e487b7100000000000000000000000000000000000000000000000000000000600052604160045260246000fd5b6110d48261108b565b810181811067ffffffffffffffff821117156110f3576110f261109c565b5b80604052505050565b600061110661106d565b905061111282826110cb565b919050565b600067ffffffffffffffff8211156111325761113161109c565b5b61113b8261108b565b9050602081019050919050565b82818337600083830152505050565b600061116a61116584611117565b6110fc565b90508281526020810184848401111561118657611185611086565b5b611191848285611148565b509392505050565b600082601f8301126111ae576111ad611081565b5b81356111be848260208601611157565b91505092915050565b6000819050919050565b6111da816111c7565b81146111e557600080fd5b50565b6000813590506111f7816111d1565b92915050565b60008060006060848603121561121657611215611077565b5b600084013567ffffffffffffffff8111156112345761123361107c565b5b61124086828701611199565b935050602084013567ffffffffffffffff8111156112615761126061107c565b5b61126d86828701611199565b925050604061127e868287016111e8565b9150509250925092565b60006020828403121561129e5761129d611077565b5b60006112ac848285016111e8565b91505092915050565b600081519050919050565b600082825260208201905092915050565b6000819050602082019050919050565b6112ea816111c7565b82525050565b600073ffffffffffffffffffffffffffffffffffffffff82169050919050565b600061131b826112f0565b9050919050565b61132b81611310565b82525050565b600081519050919050565b600082825260208201905092915050565b60005b8381101561136b578082015181840152602081019050611350565b60008484015250505050565b600061138282611331565b61138c818561133c565b935061139c81856020860161134d565b6113a58161108b565b840191505092915050565b600060a0830160008301516113c860008601826112e1565b5060208301516113db6020860182611322565b50604083015184820360408601526113f38282611377565b9150506060830151848203606086015261140d8282611377565b915050608083015161142260808601826112e1565b508091505092915050565b600061143983836113b0565b905092915050565b6000602082019050919050565b6000611459826112b5565b61146381856112c0565b935083602082028501611475856112d1565b8060005b858110156114b15784840389528151611492858261142d565b945061149d83611441565b925060208a01995050600181019050611479565b50829750879550505050505092915050565b600060208201905081810360008301526114dd818461144e565b905092915050565b600081519050919050565b600082825260208201905092915050565b6000819050602082019050919050565b600061151d83836112e1565b60208301905092915050565b6000602082019050919050565b6000611541826114e5565b61154b81856114f0565b935061155683611501565b8060005b8381101561158757815161156e8882611511565b975061157983611529565b92505060018101905061155a565b5085935050505092915050565b600060208201905081810360008301526115ae8184611536565b905092915050565b6115bf816111c7565b82525050565b6115ce81611310565b82525050565b600082825260208201905092915050565b60006115f082611331565b6115fa81856115d4565b935061160a81856020860161134d565b6116138161108b565b840191505092915050565b600060a08201905061163360008301886115b6565b61164060208301876115c5565b818103604083015261165281866115e5565b9050818103606083015261166681856115e5565b905061167560808301846115b6565b9695505050505050565b600060208201905061169460008301846115b6565b92915050565b60006020820190506116af60008301846115c5565b92915050565b6116be81611310565b81146116c957600080fd5b50565b6000813590506116db816116b5565b92915050565b600080604083850312156116f8576116f7611077565b5b6000611706858286016116cc565b9250506020611717858286016111e8565b9150509250929050565b600060a08301600083015161173960008601826112e1565b50602083015161174c6020860182611322565b50604083015184820360408601526117648282611377565b9150506060830151848203606086015261177e8282611377565b915050608083015161179360808601826112e1565b508091505092915050565b600060208201905081810360008301526117b88184611721565b905092915050565b6000602082840312156117d6576117d5611077565b5b60006117e4848285016116cc565b91505092915050565b7f5072696365206d7573742062652067726561746572207468616e203000000000600082015250565b6000611823601c836115d4565b915061182e826117ed565b602082019050919050565b6000602082019050818103600083015261185281611816565b9050919050565b7f4e487b7100000000000000000000000000000000000000000000000000000000600052601160045260246000fd5b6000611893826111c7565b91507fffffffffffffffffffffffffffffffffffffffffffffffffffffffffffffffff82036118c5576118c4611859565b5b600182019050919050565b7f4e487b7100000000000000000000000000000000000000000000000000000000600052602260045260246000fd5b6000600282049050600182168061191757607f821691505b60208210810361192a576119296118d0565b5b50919050565b60008190508160005260206000209050919050565b60006020601f8301049050919050565b600082821b905092915050565b6000600883026119927fffffffffffffffffffffffffffffffffffffffffffffffffffffffffffffffff82611955565b61199c8683611955565b95508019841693508086168417925050509392505050565b6000819050919050565b60006119d96119d46119cf846111c7565b6119b4565b6111c7565b9050919050565b6000819050919050565b6119f3836119be565b611a076119ff826119e0565b848454611962565b825550505050565b600090565b611a1c611a0f565b611a278184846119ea565b505050565b5b81811015611a4b57611a40600082611a14565b600181019050611a2d565b5050565b601f821115611a9057611a6181611930565b611a6a84611945565b81016020851015611a79578190505b611a8d611a8585611945565b830182611a2c565b50505b505050565b600082821c905092915050565b6000611ab360001984600802611a95565b1980831691505092915050565b6000611acc8383611aa2565b9150826002028217905092915050565b611ae582611331565b67ffffffffffffffff811115611afe57611afd61109c565b5b611b0882546118ff565b611b13828285611a4f565b600060209050601f831160018114611b465760008415611b34578287015190505b611b3e8582611ac0565b865550611ba6565b601f198416611b5486611930565b60005b82811015611b7c57848901518255600182019150602085019450602081019050611b57565b86831015611b995784890151611b95601f891682611aa2565b8355505b6001600288020188555050505b505050505050565b60006040820190508181036000830152611bc881856115e5565b9050611bd760208301846115b6565b9392505050565b7f426f6f6b20646f6573206e6f7420657869737400000000000000000000000000600082015250565b6000611c146013836115d4565b9150611c1f82611bde565b602082019050919050565b60006020820190508181036000830152611c4381611c07565b9050919050565b7f496e636f7272656374207061796d656e7420616d6f756e740000000000000000600082015250565b6000611c806018836115d4565b9150611c8b82611c4a565b602082019050919050565b60006020820190508181036000830152611caf81611c73565b9050919050565b7f4e487b7100000000000000000000000000000000000000000000000000000000600052603260045260246000fdfea2646970667358221220be06c8ec78ef096896d426583d17098e1636ea8398f34ab6318c33ccefca457164736f6c634300081c0033",
    "linkReferences": {},
    "deployedLinkReferences": {}
}